{
  "_format": "hh-sol-artifact-1",
  "contractName": "Client",
  "sourceName": "contracts/Client.sol",
  "abi": [
    {
      "anonymous": false,
      "inputs": [
        {
          "indexed": true,
          "internalType": "address",
          "name": "sender",
          "type": "address"
        }
      ],
      "name": "UserLoggedIn",
      "type": "event"
    },
    {
      "anonymous": false,
      "inputs": [
        {
          "indexed": true,
          "internalType": "address",
          "name": "sender",
          "type": "address"
        }
      ],
      "name": "UserLoggedOut",
      "type": "event"
    },
    {
      "anonymous": false,
      "inputs": [
        {
          "indexed": true,
          "internalType": "address",
          "name": "sender",
          "type": "address"
        }
      ],
      "name": "UserRegistered",
      "type": "event"
    },
    {
      "inputs": [
        {
          "internalType": "address",
          "name": "_userAddress",
          "type": "address"
        }
      ],
      "name": "findUser",
      "outputs": [
        {
          "components": [
            {
              "internalType": "address",
              "name": "sender",
              "type": "address"
            },
            {
              "internalType": "string",
              "name": "fullName",
              "type": "string"
            },
            {
              "internalType": "string",
              "name": "phoneNumber",
              "type": "string"
            },
            {
              "internalType": "bool",
              "name": "loggedIn",
              "type": "bool"
            }
          ],
          "internalType": "struct Client.User",
          "name": "",
          "type": "tuple"
        }
      ],
      "stateMutability": "view",
      "type": "function"
    },
    {
      "inputs": [
        {
          "internalType": "address",
          "name": "_userAddress",
          "type": "address"
        }
      ],
      "name": "isRegistered",
      "outputs": [
        {
          "internalType": "bool",
          "name": "",
          "type": "bool"
        }
      ],
      "stateMutability": "view",
      "type": "function"
    },
    {
      "inputs": [],
      "name": "loginUser",
      "outputs": [],
      "stateMutability": "nonpayable",
      "type": "function"
    },
    {
      "inputs": [],
      "name": "logoutUser",
      "outputs": [],
      "stateMutability": "nonpayable",
      "type": "function"
    },
    {
      "inputs": [
        {
          "internalType": "string",
          "name": "_fullName",
          "type": "string"
        },
        {
          "internalType": "string",
          "name": "_phoneNumber",
          "type": "string"
        }
      ],
      "name": "registerUser",
      "outputs": [],
      "stateMutability": "nonpayable",
      "type": "function"
    },
    {
      "inputs": [
        {
          "internalType": "uint256",
          "name": "",
          "type": "uint256"
        }
      ],
      "name": "users",
      "outputs": [
        {
          "internalType": "address",
          "name": "sender",
          "type": "address"
        },
        {
          "internalType": "string",
          "name": "fullName",
          "type": "string"
        },
        {
          "internalType": "string",
          "name": "phoneNumber",
          "type": "string"
        },
        {
          "internalType": "bool",
          "name": "loggedIn",
          "type": "bool"
        }
      ],
      "stateMutability": "view",
      "type": "function"
    }
  ],
  "bytecode": "0x608060405234801561001057600080fd5b506113fb806100206000396000f3fe608060405234801561001057600080fd5b50600436106100625760003560e01c80631d2e4afd14610067578063365b98b214610083578063a19ed686146100b6578063c3c5a547146100c0578063d8f145d2146100f0578063df9d9024146100fa575b600080fd5b610081600480360381019061007c9190610b20565b61012a565b005b61009d60048036038101906100989190610bce565b610271565b6040516100ad9493929190610cd6565b60405180910390f35b6100be6103ee565b005b6100da60048036038101906100d59190610d55565b610509565b6040516100e79190610d82565b60405180910390f35b6100f86105be565b005b610114600480360381019061010f9190610d55565b6106d8565b6040516101219190610e6f565b60405180910390f35b600060405180608001604052803373ffffffffffffffffffffffffffffffffffffffff168152602001848152602001838152602001600015158152509050600081908060018154018082558091505060019003906000526020600020906004020160009091909190915060008201518160000160006101000a81548173ffffffffffffffffffffffffffffffffffffffff021916908373ffffffffffffffffffffffffffffffffffffffff16021790555060208201518160010190816101f0919061109d565b506040820151816002019081610206919061109d565b5060608201518160030160006101000a81548160ff02191690831515021790555050503373ffffffffffffffffffffffffffffffffffffffff167f54db7a5cb4735e1aac1f53db512d3390390bb6637bd30ad4bf9fc98667d9b9b960405160405180910390a2505050565b6000818154811061028157600080fd5b90600052602060002090600402016000915090508060000160009054906101000a900473ffffffffffffffffffffffffffffffffffffffff16908060010180546102ca90610ec0565b80601f01602080910402602001604051908101604052809291908181526020018280546102f690610ec0565b80156103435780601f1061031857610100808354040283529160200191610343565b820191906000526020600020905b81548152906001019060200180831161032657829003601f168201915b50505050509080600201805461035890610ec0565b80601f016020809104026020016040519081016040528092919081815260200182805461038490610ec0565b80156103d15780601f106103a6576101008083540402835291602001916103d1565b820191906000526020600020905b8154815290600101906020018083116103b457829003601f168201915b5050505050908060030160009054906101000a900460ff16905084565b60006103f9336106d8565b90503373ffffffffffffffffffffffffffffffffffffffff16816000015173ffffffffffffffffffffffffffffffffffffffff161461046d576040517f08c379a0000000000000000000000000000000000000000000000000000000008152600401610464906111bb565b60405180910390fd5b8060600151156104b2576040517f08c379a00000000000000000000000000000000000000000000000000000000081526004016104a990611227565b60405180910390fd5b60018160600190151590811515815250503373ffffffffffffffffffffffffffffffffffffffff167f8d15fde878cff665868ed7579eb5081db6508d4249df61dcdd7699a5301d987460405160405180910390a250565b600080600090505b6000805490508110156105b3578273ffffffffffffffffffffffffffffffffffffffff166000828154811061054957610548611247565b5b906000526020600020906004020160000160009054906101000a900473ffffffffffffffffffffffffffffffffffffffff1673ffffffffffffffffffffffffffffffffffffffff16036105a05760019150506105b9565b80806105ab906112a5565b915050610511565b50600090505b919050565b60006105c9336106d8565b90503373ffffffffffffffffffffffffffffffffffffffff16816000015173ffffffffffffffffffffffffffffffffffffffff161461063d576040517f08c379a0000000000000000000000000000000000000000000000000000000008152600401610634906111bb565b60405180910390fd5b8060600151610681576040517f08c379a000000000000000000000000000000000000000000000000000000000815260040161067890611339565b60405180910390fd5b60008160600190151590811515815250503373ffffffffffffffffffffffffffffffffffffffff167fc6ef449222bae3754898fc5fa944d52dfc53c0ee1fdd7d733fbb422ac5e2b8c860405160405180910390a250565b6106e0610986565b60005b600080549050811015610945578273ffffffffffffffffffffffffffffffffffffffff166000828154811061071b5761071a611247565b5b906000526020600020906004020160000160009054906101000a900473ffffffffffffffffffffffffffffffffffffffff1673ffffffffffffffffffffffffffffffffffffffff1603610932576000818154811061077c5761077b611247565b5b90600052602060002090600402016040518060800160405290816000820160009054906101000a900473ffffffffffffffffffffffffffffffffffffffff1673ffffffffffffffffffffffffffffffffffffffff1673ffffffffffffffffffffffffffffffffffffffff1681526020016001820180546107fb90610ec0565b80601f016020809104026020016040519081016040528092919081815260200182805461082790610ec0565b80156108745780601f1061084957610100808354040283529160200191610874565b820191906000526020600020905b81548152906001019060200180831161085757829003601f168201915b5050505050815260200160028201805461088d90610ec0565b80601f01602080910402602001604051908101604052809291908181526020018280546108b990610ec0565b80156109065780601f106108db57610100808354040283529160200191610906565b820191906000526020600020905b8154815290600101906020018083116108e957829003601f168201915b505050505081526020016003820160009054906101000a900460ff161515151581525050915050610981565b808061093d906112a5565b9150506106e3565b506040517f08c379a0000000000000000000000000000000000000000000000000000000008152600401610978906113a5565b60405180910390fd5b919050565b6040518060800160405280600073ffffffffffffffffffffffffffffffffffffffff16815260200160608152602001606081526020016000151581525090565b6000604051905090565b600080fd5b600080fd5b600080fd5b600080fd5b6000601f19601f8301169050919050565b7f4e487b7100000000000000000000000000000000000000000000000000000000600052604160045260246000fd5b610a2d826109e4565b810181811067ffffffffffffffff82111715610a4c57610a4b6109f5565b5b80604052505050565b6000610a5f6109c6565b9050610a6b8282610a24565b919050565b600067ffffffffffffffff821115610a8b57610a8a6109f5565b5b610a94826109e4565b9050602081019050919050565b82818337600083830152505050565b6000610ac3610abe84610a70565b610a55565b905082815260208101848484011115610adf57610ade6109df565b5b610aea848285610aa1565b509392505050565b600082601f830112610b0757610b066109da565b5b8135610b17848260208601610ab0565b91505092915050565b60008060408385031215610b3757610b366109d0565b5b600083013567ffffffffffffffff811115610b5557610b546109d5565b5b610b6185828601610af2565b925050602083013567ffffffffffffffff811115610b8257610b816109d5565b5b610b8e85828601610af2565b9150509250929050565b6000819050919050565b610bab81610b98565b8114610bb657600080fd5b50565b600081359050610bc881610ba2565b92915050565b600060208284031215610be457610be36109d0565b5b6000610bf284828501610bb9565b91505092915050565b600073ffffffffffffffffffffffffffffffffffffffff82169050919050565b6000610c2682610bfb565b9050919050565b610c3681610c1b565b82525050565b600081519050919050565b600082825260208201905092915050565b60005b83811015610c76578082015181840152602081019050610c5b565b60008484015250505050565b6000610c8d82610c3c565b610c978185610c47565b9350610ca7818560208601610c58565b610cb0816109e4565b840191505092915050565b60008115159050919050565b610cd081610cbb565b82525050565b6000608082019050610ceb6000830187610c2d565b8181036020830152610cfd8186610c82565b90508181036040830152610d118185610c82565b9050610d206060830184610cc7565b95945050505050565b610d3281610c1b565b8114610d3d57600080fd5b50565b600081359050610d4f81610d29565b92915050565b600060208284031215610d6b57610d6a6109d0565b5b6000610d7984828501610d40565b91505092915050565b6000602082019050610d976000830184610cc7565b92915050565b610da681610c1b565b82525050565b600082825260208201905092915050565b6000610dc882610c3c565b610dd28185610dac565b9350610de2818560208601610c58565b610deb816109e4565b840191505092915050565b610dff81610cbb565b82525050565b6000608083016000830151610e1d6000860182610d9d565b5060208301518482036020860152610e358282610dbd565b91505060408301518482036040860152610e4f8282610dbd565b9150506060830151610e646060860182610df6565b508091505092915050565b60006020820190508181036000830152610e898184610e05565b905092915050565b7f4e487b7100000000000000000000000000000000000000000000000000000000600052602260045260246000fd5b60006002820490506001821680610ed857607f821691505b602082108103610eeb57610eea610e91565b5b50919050565b60008190508160005260206000209050919050565b60006020601f8301049050919050565b600082821b905092915050565b600060088302610f537fffffffffffffffffffffffffffffffffffffffffffffffffffffffffffffffff82610f16565b610f5d8683610f16565b95508019841693508086168417925050509392505050565b6000819050919050565b6000610f9a610f95610f9084610b98565b610f75565b610b98565b9050919050565b6000819050919050565b610fb483610f7f565b610fc8610fc082610fa1565b848454610f23565b825550505050565b600090565b610fdd610fd0565b610fe8818484610fab565b505050565b5b8181101561100c57611001600082610fd5565b600181019050610fee565b5050565b601f8211156110515761102281610ef1565b61102b84610f06565b8101602085101561103a578190505b61104e61104685610f06565b830182610fed565b50505b505050565b600082821c905092915050565b600061107460001984600802611056565b1980831691505092915050565b600061108d8383611063565b9150826002028217905092915050565b6110a682610c3c565b67ffffffffffffffff8111156110bf576110be6109f5565b5b6110c98254610ec0565b6110d4828285611010565b600060209050601f83116001811461110757600084156110f5578287015190505b6110ff8582611081565b865550611167565b601f19841661111586610ef1565b60005b8281101561113d57848901518255600182019150602085019450602081019050611118565b8683101561115a5784890151611156601f891682611063565b8355505b6001600288020188555050505b505050505050565b7f55736572206e6f7420726567697374657265642e000000000000000000000000600082015250565b60006111a5601483610c47565b91506111b08261116f565b602082019050919050565b600060208201905081810360008301526111d481611198565b9050919050565b7f5573657220616c7265616479206c6f6767656420696e2e000000000000000000600082015250565b6000611211601783610c47565b915061121c826111db565b602082019050919050565b6000602082019050818103600083015261124081611204565b9050919050565b7f4e487b7100000000000000000000000000000000000000000000000000000000600052603260045260246000fd5b7f4e487b7100000000000000000000000000000000000000000000000000000000600052601160045260246000fd5b60006112b082610b98565b91507fffffffffffffffffffffffffffffffffffffffffffffffffffffffffffffffff82036112e2576112e1611276565b5b600182019050919050565b7f55736572206e6f74206c6f6767656420696e2e00000000000000000000000000600082015250565b6000611323601383610c47565b915061132e826112ed565b602082019050919050565b6000602082019050818103600083015261135281611316565b9050919050565b7f55736572206e6f7420666f756e642e0000000000000000000000000000000000600082015250565b600061138f600f83610c47565b915061139a82611359565b602082019050919050565b600060208201905081810360008301526113be81611382565b905091905056fea2646970667358221220a3165cf9ea328f2979060bf9f41071d22f2b9e36b14b529bd5a1b27b0622445c64736f6c63430008120033",
  "linkReferences": {},
  "deployedLinkReferences": {}
}