{
  "_format": "hh-sol-artifact-1",
  "contractName": "Driver",
  "sourceName": "contracts/Driver.sol",
  "abi": [
    {
      "anonymous": false,
      "inputs": [
        {
          "indexed": true,
          "internalType": "address",
          "name": "driverAddress",
          "type": "address"
        }
      ],
      "name": "DriverLoggedIn",
      "type": "event"
    },
    {
      "anonymous": false,
      "inputs": [
        {
          "indexed": true,
          "internalType": "address",
          "name": "driverAddress",
          "type": "address"
        }
      ],
      "name": "DriverLoggedOut",
      "type": "event"
    },
    {
      "anonymous": false,
      "inputs": [
        {
          "indexed": true,
          "internalType": "address",
          "name": "driverAddress",
          "type": "address"
        }
      ],
      "name": "DriverRegistered",
      "type": "event"
    },
    {
      "anonymous": false,
      "inputs": [
        {
          "indexed": true,
          "internalType": "address",
          "name": "sender",
          "type": "address"
        }
      ],
      "name": "UserLoggedIn",
      "type": "event"
    },
    {
      "anonymous": false,
      "inputs": [
        {
          "indexed": true,
          "internalType": "address",
          "name": "sender",
          "type": "address"
        }
      ],
      "name": "UserLoggedOut",
      "type": "event"
    },
    {
      "anonymous": false,
      "inputs": [
        {
          "indexed": true,
          "internalType": "address",
          "name": "sender",
          "type": "address"
        }
      ],
      "name": "UserRegistered",
      "type": "event"
    },
    {
      "inputs": [
        {
          "internalType": "uint256",
          "name": "",
          "type": "uint256"
        }
      ],
      "name": "drivers",
      "outputs": [
        {
          "internalType": "address",
          "name": "driverAddress",
          "type": "address"
        },
        {
          "internalType": "string",
          "name": "fullName",
          "type": "string"
        },
        {
          "internalType": "string",
          "name": "phoneNumber",
          "type": "string"
        },
        {
          "internalType": "string",
          "name": "vehicleType",
          "type": "string"
        },
        {
          "internalType": "string",
          "name": "licenseId",
          "type": "string"
        },
        {
          "internalType": "uint256",
          "name": "numberOfSeats",
          "type": "uint256"
        }
      ],
      "stateMutability": "view",
      "type": "function"
    },
    {
      "inputs": [
        {
          "internalType": "address",
          "name": "_userAddress",
          "type": "address"
        }
      ],
      "name": "isRegistered",
      "outputs": [
        {
          "internalType": "bool",
          "name": "",
          "type": "bool"
        }
      ],
      "stateMutability": "view",
      "type": "function"
    },
    {
      "inputs": [],
      "name": "loginDriver",
      "outputs": [],
      "stateMutability": "nonpayable",
      "type": "function"
    },
    {
      "inputs": [],
      "name": "loginUser",
      "outputs": [],
      "stateMutability": "nonpayable",
      "type": "function"
    },
    {
      "inputs": [],
      "name": "logoutDriver",
      "outputs": [],
      "stateMutability": "nonpayable",
      "type": "function"
    },
    {
      "inputs": [],
      "name": "logoutUser",
      "outputs": [],
      "stateMutability": "nonpayable",
      "type": "function"
    },
    {
      "inputs": [
        {
          "internalType": "string",
          "name": "_fullName",
          "type": "string"
        },
        {
          "internalType": "string",
          "name": "_phoneNumber",
          "type": "string"
        },
        {
          "internalType": "string",
          "name": "_vehicleType",
          "type": "string"
        },
        {
          "internalType": "string",
          "name": "_licenseId",
          "type": "string"
        },
        {
          "internalType": "uint256",
          "name": "_numberOfSeats",
          "type": "uint256"
        }
      ],
      "name": "registerDriver",
      "outputs": [],
      "stateMutability": "nonpayable",
      "type": "function"
    },
    {
      "inputs": [
        {
          "internalType": "string",
          "name": "_fullName",
          "type": "string"
        },
        {
          "internalType": "string",
          "name": "_phoneNumber",
          "type": "string"
        }
      ],
      "name": "registerUser",
      "outputs": [],
      "stateMutability": "nonpayable",
      "type": "function"
    },
    {
      "inputs": [
        {
          "internalType": "uint256",
          "name": "",
          "type": "uint256"
        }
      ],
      "name": "users",
      "outputs": [
        {
          "internalType": "address",
          "name": "sender",
          "type": "address"
        },
        {
          "internalType": "string",
          "name": "fullName",
          "type": "string"
        },
        {
          "internalType": "string",
          "name": "phoneNumber",
          "type": "string"
        },
        {
          "internalType": "bool",
          "name": "loggedIn",
          "type": "bool"
        }
      ],
      "stateMutability": "view",
      "type": "function"
    }
  ],
  "bytecode": "0x608060405234801561001057600080fd5b50611dde806100206000396000f3fe608060405234801561001057600080fd5b50600436106100935760003560e01c8063968c372a11610066578063968c372a146100fb578063a19ed68614610117578063c3c5a54714610121578063d8f145d214610151578063f79e54501461015b57610093565b80630108ea0114610098578063175e4431146100a25780631d2e4afd146100ac578063365b98b2146100c8575b600080fd5b6100a0610190565b005b6100aa6102d9565b005b6100c660048036038101906100c191906112d0565b61046c565b005b6100e260048036038101906100dd919061137e565b6105b3565b6040516100f29493929190611486565b60405180910390f35b610115600480360381019061011091906114d9565b610730565b005b61011f610999565b005b61013b600480360381019061013691906115f0565b610aed565b604051610148919061161d565b60405180910390f35b610159610ba2565b005b6101756004803603810190610170919061137e565b610cf5565b60405161018796959493929190611647565b60405180910390f35b600061019b33610f81565b905060018054905081036101e4576040517f08c379a00000000000000000000000000000000000000000000000000000000081526004016101db90611710565b60405180910390fd5b600081815481106101f8576101f7611730565b5b906000526020600020906004020160030160009054906101000a900460ff16610256576040517f08c379a000000000000000000000000000000000000000000000000000000000815260040161024d906117ab565b60405180910390fd5b600080828154811061026b5761026a611730565b5b906000526020600020906004020160030160006101000a81548160ff0219169083151502179055503373ffffffffffffffffffffffffffffffffffffffff167f7f0ba47123c7c6458f48b12f477bc292370c4701d641b1051e14f289f934830460405160405180910390a250565b6102e233610aed565b610321576040517f08c379a000000000000000000000000000000000000000000000000000000000815260040161031890611817565b60405180910390fd5b600061032c33610f81565b90506001805490508103610375576040517f08c379a000000000000000000000000000000000000000000000000000000000815260040161036c90611710565b60405180910390fd5b6000818154811061038957610388611730565b5b906000526020600020906004020160030160009054906101000a900460ff16156103e8576040517f08c379a00000000000000000000000000000000000000000000000000000000081526004016103df90611883565b60405180910390fd5b6001600082815481106103fe576103fd611730565b5b906000526020600020906004020160030160006101000a81548160ff0219169083151502179055503373ffffffffffffffffffffffffffffffffffffffff167f25a4aa466a13c0c1eeb6d86439ce20e8e8992998a66bfc9bc50f56b5c3eeda0460405160405180910390a250565b600060405180608001604052803373ffffffffffffffffffffffffffffffffffffffff168152602001848152602001838152602001600015158152509050600081908060018154018082558091505060019003906000526020600020906004020160009091909190915060008201518160000160006101000a81548173ffffffffffffffffffffffffffffffffffffffff021916908373ffffffffffffffffffffffffffffffffffffffff16021790555060208201518160010190816105329190611aaf565b5060408201518160020190816105489190611aaf565b5060608201518160030160006101000a81548160ff02191690831515021790555050503373ffffffffffffffffffffffffffffffffffffffff167f54db7a5cb4735e1aac1f53db512d3390390bb6637bd30ad4bf9fc98667d9b9b960405160405180910390a2505050565b600081815481106105c357600080fd5b90600052602060002090600402016000915090508060000160009054906101000a900473ffffffffffffffffffffffffffffffffffffffff169080600101805461060c906118d2565b80601f0160208091040260200160405190810160405280929190818152602001828054610638906118d2565b80156106855780601f1061065a57610100808354040283529160200191610685565b820191906000526020600020905b81548152906001019060200180831161066857829003601f168201915b50505050509080600201805461069a906118d2565b80601f01602080910402602001604051908101604052809291908181526020018280546106c6906118d2565b80156107135780601f106106e857610100808354040283529160200191610713565b820191906000526020600020905b8154815290600101906020018083116106f657829003601f168201915b5050505050908060030160009054906101000a900460ff16905084565b600060405180608001604052803373ffffffffffffffffffffffffffffffffffffffff168152602001878152602001868152602001600015158152509050600081908060018154018082558091505060019003906000526020600020906004020160009091909190915060008201518160000160006101000a81548173ffffffffffffffffffffffffffffffffffffffff021916908373ffffffffffffffffffffffffffffffffffffffff16021790555060208201518160010190816107f69190611aaf565b50604082015181600201908161080c9190611aaf565b5060608201518160030160006101000a81548160ff021916908315150217905550505060006040518060c001604052803373ffffffffffffffffffffffffffffffffffffffff168152602001888152602001878152602001868152602001858152602001848152509050600181908060018154018082558091505060019003906000526020600020906006020160009091909190915060008201518160000160006101000a81548173ffffffffffffffffffffffffffffffffffffffff021916908373ffffffffffffffffffffffffffffffffffffffff16021790555060208201518160010190816108fe9190611aaf565b5060408201518160020190816109149190611aaf565b50606082015181600301908161092a9190611aaf565b5060808201518160040190816109409190611aaf565b5060a0820151816005015550503373ffffffffffffffffffffffffffffffffffffffff167fbe5e7a1c543800c6abb49749a131598b050660d403a09b2e31318c2048c00d7460405160405180910390a250505050505050565b60006109a43361106b565b90503373ffffffffffffffffffffffffffffffffffffffff168160000160009054906101000a900473ffffffffffffffffffffffffffffffffffffffff1673ffffffffffffffffffffffffffffffffffffffff1614610a38576040517f08c379a0000000000000000000000000000000000000000000000000000000008152600401610a2f90611bcd565b60405180910390fd5b8060030160009054906101000a900460ff1615610a8a576040517f08c379a0000000000000000000000000000000000000000000000000000000008152600401610a8190611c39565b60405180910390fd5b60018160030160006101000a81548160ff0219169083151502179055503373ffffffffffffffffffffffffffffffffffffffff167f8d15fde878cff665868ed7579eb5081db6508d4249df61dcdd7699a5301d987460405160405180910390a250565b600080600090505b600080549050811015610b97578273ffffffffffffffffffffffffffffffffffffffff1660008281548110610b2d57610b2c611730565b5b906000526020600020906004020160000160009054906101000a900473ffffffffffffffffffffffffffffffffffffffff1673ffffffffffffffffffffffffffffffffffffffff1603610b84576001915050610b9d565b8080610b8f90611c88565b915050610af5565b50600090505b919050565b6000610bad3361106b565b90503373ffffffffffffffffffffffffffffffffffffffff168160000160009054906101000a900473ffffffffffffffffffffffffffffffffffffffff1673ffffffffffffffffffffffffffffffffffffffff1614610c41576040517f08c379a0000000000000000000000000000000000000000000000000000000008152600401610c3890611bcd565b60405180910390fd5b8060030160009054906101000a900460ff16610c92576040517f08c379a0000000000000000000000000000000000000000000000000000000008152600401610c8990611d1c565b60405180910390fd5b60008160030160006101000a81548160ff0219169083151502179055503373ffffffffffffffffffffffffffffffffffffffff167fc6ef449222bae3754898fc5fa944d52dfc53c0ee1fdd7d733fbb422ac5e2b8c860405160405180910390a250565b60018181548110610d0557600080fd5b90600052602060002090600602016000915090508060000160009054906101000a900473ffffffffffffffffffffffffffffffffffffffff1690806001018054610d4e906118d2565b80601f0160208091040260200160405190810160405280929190818152602001828054610d7a906118d2565b8015610dc75780601f10610d9c57610100808354040283529160200191610dc7565b820191906000526020600020905b815481529060010190602001808311610daa57829003601f168201915b505050505090806002018054610ddc906118d2565b80601f0160208091040260200160405190810160405280929190818152602001828054610e08906118d2565b8015610e555780601f10610e2a57610100808354040283529160200191610e55565b820191906000526020600020905b815481529060010190602001808311610e3857829003601f168201915b505050505090806003018054610e6a906118d2565b80601f0160208091040260200160405190810160405280929190818152602001828054610e96906118d2565b8015610ee35780601f10610eb857610100808354040283529160200191610ee3565b820191906000526020600020905b815481529060010190602001808311610ec657829003601f168201915b505050505090806004018054610ef8906118d2565b80601f0160208091040260200160405190810160405280929190818152602001828054610f24906118d2565b8015610f715780601f10610f4657610100808354040283529160200191610f71565b820191906000526020600020905b815481529060010190602001808311610f5457829003601f168201915b5050505050908060050154905086565b600080600090505b60018054905081101561102a578273ffffffffffffffffffffffffffffffffffffffff1660018281548110610fc157610fc0611730565b5b906000526020600020906006020160000160009054906101000a900473ffffffffffffffffffffffffffffffffffffffff1673ffffffffffffffffffffffffffffffffffffffff16036110175780915050611066565b808061102290611c88565b915050610f89565b506040517f08c379a000000000000000000000000000000000000000000000000000000000815260040161105d90611710565b60405180910390fd5b919050565b600080600090505b600080549050811015611135578273ffffffffffffffffffffffffffffffffffffffff16600082815481106110ab576110aa611730565b5b906000526020600020906004020160000160009054906101000a900473ffffffffffffffffffffffffffffffffffffffff1673ffffffffffffffffffffffffffffffffffffffff1603611122576000818154811061110c5761110b611730565b5b9060005260206000209060040201915050611171565b808061112d90611c88565b915050611073565b506040517f08c379a000000000000000000000000000000000000000000000000000000000815260040161116890611d88565b60405180910390fd5b919050565b6000604051905090565b600080fd5b600080fd5b600080fd5b600080fd5b6000601f19601f8301169050919050565b7f4e487b7100000000000000000000000000000000000000000000000000000000600052604160045260246000fd5b6111dd82611194565b810181811067ffffffffffffffff821117156111fc576111fb6111a5565b5b80604052505050565b600061120f611176565b905061121b82826111d4565b919050565b600067ffffffffffffffff82111561123b5761123a6111a5565b5b61124482611194565b9050602081019050919050565b82818337600083830152505050565b600061127361126e84611220565b611205565b90508281526020810184848401111561128f5761128e61118f565b5b61129a848285611251565b509392505050565b600082601f8301126112b7576112b661118a565b5b81356112c7848260208601611260565b91505092915050565b600080604083850312156112e7576112e6611180565b5b600083013567ffffffffffffffff81111561130557611304611185565b5b611311858286016112a2565b925050602083013567ffffffffffffffff81111561133257611331611185565b5b61133e858286016112a2565b9150509250929050565b6000819050919050565b61135b81611348565b811461136657600080fd5b50565b60008135905061137881611352565b92915050565b60006020828403121561139457611393611180565b5b60006113a284828501611369565b91505092915050565b600073ffffffffffffffffffffffffffffffffffffffff82169050919050565b60006113d6826113ab565b9050919050565b6113e6816113cb565b82525050565b600081519050919050565b600082825260208201905092915050565b60005b8381101561142657808201518184015260208101905061140b565b60008484015250505050565b600061143d826113ec565b61144781856113f7565b9350611457818560208601611408565b61146081611194565b840191505092915050565b60008115159050919050565b6114808161146b565b82525050565b600060808201905061149b60008301876113dd565b81810360208301526114ad8186611432565b905081810360408301526114c18185611432565b90506114d06060830184611477565b95945050505050565b600080600080600060a086880312156114f5576114f4611180565b5b600086013567ffffffffffffffff81111561151357611512611185565b5b61151f888289016112a2565b955050602086013567ffffffffffffffff8111156115405761153f611185565b5b61154c888289016112a2565b945050604086013567ffffffffffffffff81111561156d5761156c611185565b5b611579888289016112a2565b935050606086013567ffffffffffffffff81111561159a57611599611185565b5b6115a6888289016112a2565b92505060806115b788828901611369565b9150509295509295909350565b6115cd816113cb565b81146115d857600080fd5b50565b6000813590506115ea816115c4565b92915050565b60006020828403121561160657611605611180565b5b6000611614848285016115db565b91505092915050565b60006020820190506116326000830184611477565b92915050565b61164181611348565b82525050565b600060c08201905061165c60008301896113dd565b818103602083015261166e8188611432565b905081810360408301526116828187611432565b905081810360608301526116968186611432565b905081810360808301526116aa8185611432565b90506116b960a0830184611638565b979650505050505050565b7f447269766572206e6f7420666f756e642e000000000000000000000000000000600082015250565b60006116fa6011836113f7565b9150611705826116c4565b602082019050919050565b60006020820190508181036000830152611729816116ed565b9050919050565b7f4e487b7100000000000000000000000000000000000000000000000000000000600052603260045260246000fd5b7f447269766572206e6f74206c6f6767656420696e2e0000000000000000000000600082015250565b60006117956015836113f7565b91506117a08261175f565b602082019050919050565b600060208201905081810360008301526117c481611788565b9050919050565b7f447269766572206e6f7420726567697374657265642e00000000000000000000600082015250565b60006118016016836113f7565b915061180c826117cb565b602082019050919050565b60006020820190508181036000830152611830816117f4565b9050919050565b7f44726976657220616c7265616479206c6f6767656420696e2e00000000000000600082015250565b600061186d6019836113f7565b915061187882611837565b602082019050919050565b6000602082019050818103600083015261189c81611860565b9050919050565b7f4e487b7100000000000000000000000000000000000000000000000000000000600052602260045260246000fd5b600060028204905060018216806118ea57607f821691505b6020821081036118fd576118fc6118a3565b5b50919050565b60008190508160005260206000209050919050565b60006020601f8301049050919050565b600082821b905092915050565b6000600883026119657fffffffffffffffffffffffffffffffffffffffffffffffffffffffffffffffff82611928565b61196f8683611928565b95508019841693508086168417925050509392505050565b6000819050919050565b60006119ac6119a76119a284611348565b611987565b611348565b9050919050565b6000819050919050565b6119c683611991565b6119da6119d2826119b3565b848454611935565b825550505050565b600090565b6119ef6119e2565b6119fa8184846119bd565b505050565b5b81811015611a1e57611a136000826119e7565b600181019050611a00565b5050565b601f821115611a6357611a3481611903565b611a3d84611918565b81016020851015611a4c578190505b611a60611a5885611918565b8301826119ff565b50505b505050565b600082821c905092915050565b6000611a8660001984600802611a68565b1980831691505092915050565b6000611a9f8383611a75565b9150826002028217905092915050565b611ab8826113ec565b67ffffffffffffffff811115611ad157611ad06111a5565b5b611adb82546118d2565b611ae6828285611a22565b600060209050601f831160018114611b195760008415611b07578287015190505b611b118582611a93565b865550611b79565b601f198416611b2786611903565b60005b82811015611b4f57848901518255600182019150602085019450602081019050611b2a565b86831015611b6c5784890151611b68601f891682611a75565b8355505b6001600288020188555050505b505050505050565b7f55736572206e6f7420726567697374657265642e000000000000000000000000600082015250565b6000611bb76014836113f7565b9150611bc282611b81565b602082019050919050565b60006020820190508181036000830152611be681611baa565b9050919050565b7f5573657220616c7265616479206c6f6767656420696e2e000000000000000000600082015250565b6000611c236017836113f7565b9150611c2e82611bed565b602082019050919050565b60006020820190508181036000830152611c5281611c16565b9050919050565b7f4e487b7100000000000000000000000000000000000000000000000000000000600052601160045260246000fd5b6000611c9382611348565b91507fffffffffffffffffffffffffffffffffffffffffffffffffffffffffffffffff8203611cc557611cc4611c59565b5b600182019050919050565b7f55736572206e6f74206c6f6767656420696e2e00000000000000000000000000600082015250565b6000611d066013836113f7565b9150611d1182611cd0565b602082019050919050565b60006020820190508181036000830152611d3581611cf9565b9050919050565b7f55736572206e6f7420666f756e642e0000000000000000000000000000000000600082015250565b6000611d72600f836113f7565b9150611d7d82611d3c565b602082019050919050565b60006020820190508181036000830152611da181611d65565b905091905056fea26469706673582212208220a5a30ec976312510337e6675f3fa84b8385b030b28c062710dd10df09f8064736f6c63430008120033",
  "linkReferences": {},
  "deployedLinkReferences": {}
}