{
  "_format": "hh-sol-artifact-1",
  "contractName": "Ride",
  "sourceName": "contracts/Ride.sol",
  "abi": [
    {
      "inputs": [
        {
          "internalType": "address",
          "name": "_owner",
          "type": "address"
        }
      ],
      "stateMutability": "nonpayable",
      "type": "constructor"
    },
    {
      "anonymous": false,
      "inputs": [
        {
          "indexed": false,
          "internalType": "address",
          "name": "from",
          "type": "address"
        },
        {
          "indexed": false,
          "internalType": "address",
          "name": "to",
          "type": "address"
        },
        {
          "indexed": false,
          "internalType": "uint256",
          "name": "amount",
          "type": "uint256"
        }
      ],
      "name": "Transfer",
      "type": "event"
    },
    {
      "inputs": [
        {
          "internalType": "uint256",
          "name": "_orderId",
          "type": "uint256"
        }
      ],
      "name": "completeOrder",
      "outputs": [],
      "stateMutability": "nonpayable",
      "type": "function"
    },
    {
      "inputs": [
        {
          "internalType": "address",
          "name": "_driver",
          "type": "address"
        },
        {
          "internalType": "string",
          "name": "_startLocation",
          "type": "string"
        },
        {
          "internalType": "string",
          "name": "_endLocation",
          "type": "string"
        },
        {
          "internalType": "uint256",
          "name": "_price",
          "type": "uint256"
        }
      ],
      "name": "createOrder",
      "outputs": [
        {
          "internalType": "uint256",
          "name": "",
          "type": "uint256"
        }
      ],
      "stateMutability": "nonpayable",
      "type": "function"
    },
    {
      "inputs": [],
      "name": "getAllTransactions",
      "outputs": [
        {
          "components": [
            {
              "internalType": "address",
              "name": "sender",
              "type": "address"
            },
            {
              "internalType": "address",
              "name": "to",
              "type": "address"
            },
            {
              "internalType": "uint256",
              "name": "amount",
              "type": "uint256"
            }
          ],
          "internalType": "struct Ride.TransfertStruct[]",
          "name": "",
          "type": "tuple[]"
        }
      ],
      "stateMutability": "view",
      "type": "function"
    },
    {
      "inputs": [
        {
          "internalType": "uint256",
          "name": "_orderId",
          "type": "uint256"
        }
      ],
      "name": "getOrder",
      "outputs": [
        {
          "components": [
            {
              "internalType": "address",
              "name": "driver",
              "type": "address"
            },
            {
              "internalType": "string",
              "name": "startLocation",
              "type": "string"
            },
            {
              "internalType": "string",
              "name": "endLocation",
              "type": "string"
            },
            {
              "internalType": "uint256",
              "name": "price",
              "type": "uint256"
            },
            {
              "internalType": "address",
              "name": "passengerAddress",
              "type": "address"
            },
            {
              "internalType": "bool",
              "name": "completed",
              "type": "bool"
            }
          ],
          "internalType": "struct Ride.Order",
          "name": "",
          "type": "tuple"
        }
      ],
      "stateMutability": "view",
      "type": "function"
    },
    {
      "inputs": [
        {
          "internalType": "uint256",
          "name": "",
          "type": "uint256"
        }
      ],
      "name": "orders",
      "outputs": [
        {
          "internalType": "address",
          "name": "driver",
          "type": "address"
        },
        {
          "internalType": "string",
          "name": "startLocation",
          "type": "string"
        },
        {
          "internalType": "string",
          "name": "endLocation",
          "type": "string"
        },
        {
          "internalType": "uint256",
          "name": "price",
          "type": "uint256"
        },
        {
          "internalType": "address",
          "name": "passengerAddress",
          "type": "address"
        },
        {
          "internalType": "bool",
          "name": "completed",
          "type": "bool"
        }
      ],
      "stateMutability": "view",
      "type": "function"
    },
    {
      "inputs": [
        {
          "internalType": "address payable",
          "name": "to",
          "type": "address"
        },
        {
          "internalType": "uint256",
          "name": "amount",
          "type": "uint256"
        }
      ],
      "name": "transfer",
      "outputs": [],
      "stateMutability": "payable",
      "type": "function"
    }
  ],
  "bytecode": "0x60806040523480156200001157600080fd5b5060405162001bed38038062001bed8339818101604052810190620000379190620000e8565b806000806101000a81548173ffffffffffffffffffffffffffffffffffffffff021916908373ffffffffffffffffffffffffffffffffffffffff160217905550506200011a565b600080fd5b600073ffffffffffffffffffffffffffffffffffffffff82169050919050565b6000620000b08262000083565b9050919050565b620000c281620000a3565b8114620000ce57600080fd5b50565b600081519050620000e281620000b7565b92915050565b6000602082840312156200010157620001006200007e565b5b60006200011184828501620000d1565b91505092915050565b611ac3806200012a6000396000f3fe6080604052600436106100555760003560e01c806327506f531461005a5780636dfd7b5214610085578063a85c38ef146100c2578063a9059cbb14610104578063b6adaaff14610120578063d09ef24114610149575b600080fd5b34801561006657600080fd5b5061006f610186565b60405161007c9190610f4b565b60405180910390f35b34801561009157600080fd5b506100ac60048036038101906100a7919061111f565b61029b565b6040516100b991906111cd565b60405180910390f35b3480156100ce57600080fd5b506100e960048036038101906100e491906111e8565b61041f565b6040516100fb969594939291906112be565b60405180910390f35b61011e6004803603810190610119919061136b565b6105c8565b005b34801561012c57600080fd5b50610147600480360381019061014291906111e8565b610a38565b005b34801561015557600080fd5b50610170600480360381019061016b91906111e8565b610b6b565b60405161017d9190611494565b60405180910390f35b60606002805480602002602001604051908101604052809291908181526020016000905b8282101561029257838290600052602060002090600302016040518060600160405290816000820160009054906101000a900473ffffffffffffffffffffffffffffffffffffffff1673ffffffffffffffffffffffffffffffffffffffff1673ffffffffffffffffffffffffffffffffffffffff1681526020016001820160009054906101000a900473ffffffffffffffffffffffffffffffffffffffff1673ffffffffffffffffffffffffffffffffffffffff1673ffffffffffffffffffffffffffffffffffffffff168152602001600282015481525050815260200190600101906101aa565b50505050905090565b600080600180549050905060016040518060c001604052808873ffffffffffffffffffffffffffffffffffffffff1681526020018781526020018681526020018581526020013373ffffffffffffffffffffffffffffffffffffffff16815260200160001515815250908060018154018082558091505060019003906000526020600020906005020160009091909190915060008201518160000160006101000a81548173ffffffffffffffffffffffffffffffffffffffff021916908373ffffffffffffffffffffffffffffffffffffffff160217905550602082015181600101908161038991906116c2565b50604082015181600201908161039f91906116c2565b506060820151816003015560808201518160040160006101000a81548173ffffffffffffffffffffffffffffffffffffffff021916908373ffffffffffffffffffffffffffffffffffffffff16021790555060a08201518160040160146101000a81548160ff021916908315150217905550505080915050949350505050565b6001818154811061042f57600080fd5b90600052602060002090600502016000915090508060000160009054906101000a900473ffffffffffffffffffffffffffffffffffffffff1690806001018054610478906114e5565b80601f01602080910402602001604051908101604052809291908181526020018280546104a4906114e5565b80156104f15780601f106104c6576101008083540402835291602001916104f1565b820191906000526020600020905b8154815290600101906020018083116104d457829003601f168201915b505050505090806002018054610506906114e5565b80601f0160208091040260200160405190810160405280929190818152602001828054610532906114e5565b801561057f5780601f106105545761010080835404028352916020019161057f565b820191906000526020600020905b81548152906001019060200180831161056257829003601f168201915b5050505050908060030154908060040160009054906101000a900473ffffffffffffffffffffffffffffffffffffffff16908060040160149054906101000a900460ff16905086565b6000600a826105d791906117f2565b9050600081836105e79190611823565b905060008473ffffffffffffffffffffffffffffffffffffffff168260405161060f90611888565b60006040518083038185875af1925050503d806000811461064c576040519150601f19603f3d011682016040523d82523d6000602084013e610651565b606091505b5050905080610695576040517f08c379a000000000000000000000000000000000000000000000000000000000815260040161068c906118e9565b60405180910390fd5b60008060009054906101000a900473ffffffffffffffffffffffffffffffffffffffff1673ffffffffffffffffffffffffffffffffffffffff16846040516106dc90611888565b60006040518083038185875af1925050503d8060008114610719576040519150601f19603f3d011682016040523d82523d6000602084013e61071e565b606091505b5050905080610762576040517f08c379a0000000000000000000000000000000000000000000000000000000008152600401610759906118e9565b60405180910390fd5b600260405180606001604052803373ffffffffffffffffffffffffffffffffffffffff1681526020018873ffffffffffffffffffffffffffffffffffffffff16815260200185815250908060018154018082558091505060019003906000526020600020906003020160009091909190915060008201518160000160006101000a81548173ffffffffffffffffffffffffffffffffffffffff021916908373ffffffffffffffffffffffffffffffffffffffff16021790555060208201518160010160006101000a81548173ffffffffffffffffffffffffffffffffffffffff021916908373ffffffffffffffffffffffffffffffffffffffff160217905550604082015181600201555050600260405180606001604052803373ffffffffffffffffffffffffffffffffffffffff16815260200160008054906101000a900473ffffffffffffffffffffffffffffffffffffffff1673ffffffffffffffffffffffffffffffffffffffff16815260200186815250908060018154018082558091505060019003906000526020600020906003020160009091909190915060008201518160000160006101000a81548173ffffffffffffffffffffffffffffffffffffffff021916908373ffffffffffffffffffffffffffffffffffffffff16021790555060208201518160010160006101000a81548173ffffffffffffffffffffffffffffffffffffffff021916908373ffffffffffffffffffffffffffffffffffffffff1602179055506040820151816002015550507fddf252ad1be2c89b69c2b068fc378daa952ba7f163c4a11628f55a4df523b3ef3387856040516109cd9392919061195e565b60405180910390a17fddf252ad1be2c89b69c2b068fc378daa952ba7f163c4a11628f55a4df523b3ef3360008054906101000a900473ffffffffffffffffffffffffffffffffffffffff1686604051610a2893929190611995565b60405180910390a1505050505050565b600060018281548110610a4e57610a4d6119cc565b5b906000526020600020906005020190508060040160009054906101000a900473ffffffffffffffffffffffffffffffffffffffff1673ffffffffffffffffffffffffffffffffffffffff163373ffffffffffffffffffffffffffffffffffffffff161480610b0b57508060000160009054906101000a900473ffffffffffffffffffffffffffffffffffffffff1673ffffffffffffffffffffffffffffffffffffffff163373ffffffffffffffffffffffffffffffffffffffff16145b610b4a576040517f08c379a0000000000000000000000000000000000000000000000000000000008152600401610b4190611a6d565b60405180910390fd5b60018160040160146101000a81548160ff0219169083151502179055505050565b610b73610d9c565b60018281548110610b8757610b866119cc565b5b90600052602060002090600502016040518060c00160405290816000820160009054906101000a900473ffffffffffffffffffffffffffffffffffffffff1673ffffffffffffffffffffffffffffffffffffffff1673ffffffffffffffffffffffffffffffffffffffff168152602001600182018054610c06906114e5565b80601f0160208091040260200160405190810160405280929190818152602001828054610c32906114e5565b8015610c7f5780601f10610c5457610100808354040283529160200191610c7f565b820191906000526020600020905b815481529060010190602001808311610c6257829003601f168201915b50505050508152602001600282018054610c98906114e5565b80601f0160208091040260200160405190810160405280929190818152602001828054610cc4906114e5565b8015610d115780601f10610ce657610100808354040283529160200191610d11565b820191906000526020600020905b815481529060010190602001808311610cf457829003601f168201915b50505050508152602001600382015481526020016004820160009054906101000a900473ffffffffffffffffffffffffffffffffffffffff1673ffffffffffffffffffffffffffffffffffffffff1673ffffffffffffffffffffffffffffffffffffffff1681526020016004820160149054906101000a900460ff1615151515815250509050919050565b6040518060c00160405280600073ffffffffffffffffffffffffffffffffffffffff168152602001606081526020016060815260200160008152602001600073ffffffffffffffffffffffffffffffffffffffff1681526020016000151581525090565b600081519050919050565b600082825260208201905092915050565b6000819050602082019050919050565b600073ffffffffffffffffffffffffffffffffffffffff82169050919050565b6000610e5782610e2c565b9050919050565b610e6781610e4c565b82525050565b6000819050919050565b610e8081610e6d565b82525050565b606082016000820151610e9c6000850182610e5e565b506020820151610eaf6020850182610e5e565b506040820151610ec26040850182610e77565b50505050565b6000610ed48383610e86565b60608301905092915050565b6000602082019050919050565b6000610ef882610e00565b610f028185610e0b565b9350610f0d83610e1c565b8060005b83811015610f3e578151610f258882610ec8565b9750610f3083610ee0565b925050600181019050610f11565b5085935050505092915050565b60006020820190508181036000830152610f658184610eed565b905092915050565b6000604051905090565b600080fd5b600080fd5b610f8a81610e4c565b8114610f9557600080fd5b50565b600081359050610fa781610f81565b92915050565b600080fd5b600080fd5b6000601f19601f8301169050919050565b7f4e487b7100000000000000000000000000000000000000000000000000000000600052604160045260246000fd5b61100082610fb7565b810181811067ffffffffffffffff8211171561101f5761101e610fc8565b5b80604052505050565b6000611032610f6d565b905061103e8282610ff7565b919050565b600067ffffffffffffffff82111561105e5761105d610fc8565b5b61106782610fb7565b9050602081019050919050565b82818337600083830152505050565b600061109661109184611043565b611028565b9050828152602081018484840111156110b2576110b1610fb2565b5b6110bd848285611074565b509392505050565b600082601f8301126110da576110d9610fad565b5b81356110ea848260208601611083565b91505092915050565b6110fc81610e6d565b811461110757600080fd5b50565b600081359050611119816110f3565b92915050565b6000806000806080858703121561113957611138610f77565b5b600061114787828801610f98565b945050602085013567ffffffffffffffff81111561116857611167610f7c565b5b611174878288016110c5565b935050604085013567ffffffffffffffff81111561119557611194610f7c565b5b6111a1878288016110c5565b92505060606111b28782880161110a565b91505092959194509250565b6111c781610e6d565b82525050565b60006020820190506111e260008301846111be565b92915050565b6000602082840312156111fe576111fd610f77565b5b600061120c8482850161110a565b91505092915050565b61121e81610e4c565b82525050565b600081519050919050565b600082825260208201905092915050565b60005b8381101561125e578082015181840152602081019050611243565b60008484015250505050565b600061127582611224565b61127f818561122f565b935061128f818560208601611240565b61129881610fb7565b840191505092915050565b60008115159050919050565b6112b8816112a3565b82525050565b600060c0820190506112d36000830189611215565b81810360208301526112e5818861126a565b905081810360408301526112f9818761126a565b905061130860608301866111be565b6113156080830185611215565b61132260a08301846112af565b979650505050505050565b600061133882610e2c565b9050919050565b6113488161132d565b811461135357600080fd5b50565b6000813590506113658161133f565b92915050565b6000806040838503121561138257611381610f77565b5b600061139085828601611356565b92505060206113a18582860161110a565b9150509250929050565b600082825260208201905092915050565b60006113c782611224565b6113d181856113ab565b93506113e1818560208601611240565b6113ea81610fb7565b840191505092915050565b6113fe816112a3565b82525050565b600060c08301600083015161141c6000860182610e5e565b506020830151848203602086015261143482826113bc565b9150506040830151848203604086015261144e82826113bc565b91505060608301516114636060860182610e77565b5060808301516114766080860182610e5e565b5060a083015161148960a08601826113f5565b508091505092915050565b600060208201905081810360008301526114ae8184611404565b905092915050565b7f4e487b7100000000000000000000000000000000000000000000000000000000600052602260045260246000fd5b600060028204905060018216806114fd57607f821691505b6020821081036115105761150f6114b6565b5b50919050565b60008190508160005260206000209050919050565b60006020601f8301049050919050565b600082821b905092915050565b6000600883026115787fffffffffffffffffffffffffffffffffffffffffffffffffffffffffffffffff8261153b565b611582868361153b565b95508019841693508086168417925050509392505050565b6000819050919050565b60006115bf6115ba6115b584610e6d565b61159a565b610e6d565b9050919050565b6000819050919050565b6115d9836115a4565b6115ed6115e5826115c6565b848454611548565b825550505050565b600090565b6116026115f5565b61160d8184846115d0565b505050565b5b81811015611631576116266000826115fa565b600181019050611613565b5050565b601f8211156116765761164781611516565b6116508461152b565b8101602085101561165f578190505b61167361166b8561152b565b830182611612565b50505b505050565b600082821c905092915050565b60006116996000198460080261167b565b1980831691505092915050565b60006116b28383611688565b9150826002028217905092915050565b6116cb82611224565b67ffffffffffffffff8111156116e4576116e3610fc8565b5b6116ee82546114e5565b6116f9828285611635565b600060209050601f83116001811461172c576000841561171a578287015190505b61172485826116a6565b86555061178c565b601f19841661173a86611516565b60005b828110156117625784890151825560018201915060208501945060208101905061173d565b8683101561177f578489015161177b601f891682611688565b8355505b6001600288020188555050505b505050505050565b7f4e487b7100000000000000000000000000000000000000000000000000000000600052601260045260246000fd5b7f4e487b7100000000000000000000000000000000000000000000000000000000600052601160045260246000fd5b60006117fd82610e6d565b915061180883610e6d565b92508261181857611817611794565b5b828204905092915050565b600061182e82610e6d565b915061183983610e6d565b9250828203905081811115611851576118506117c3565b5b92915050565b600081905092915050565b50565b6000611872600083611857565b915061187d82611862565b600082019050919050565b600061189382611865565b9150819050919050565b7f4661696c656420746f2073656e64204574686572000000000000000000000000600082015250565b60006118d360148361122f565b91506118de8261189d565b602082019050919050565b60006020820190508181036000830152611902816118c6565b9050919050565b600061192461191f61191a84610e2c565b61159a565b610e2c565b9050919050565b600061193682611909565b9050919050565b60006119488261192b565b9050919050565b6119588161193d565b82525050565b60006060820190506119736000830186611215565b611980602083018561194f565b61198d60408301846111be565b949350505050565b60006060820190506119aa6000830186611215565b6119b76020830185611215565b6119c460408301846111be565b949350505050565b7f4e487b7100000000000000000000000000000000000000000000000000000000600052603260045260246000fd5b7f4f6e6c79207468652070617373656e676572206f72206472697665722063616e60008201527f20636f6d706c65746520746865206f726465722e000000000000000000000000602082015250565b6000611a5760348361122f565b9150611a62826119fb565b604082019050919050565b60006020820190508181036000830152611a8681611a4a565b905091905056fea26469706673582212203fe8cab7c6b9047412e7c73ce58d8b3e9ab827cc5c585467ef3f7befe61a384064736f6c63430008120033",
  "linkReferences": {},
  "deployedLinkReferences": {}
}